:020000040800F2
:100000000050002015370008C5350008C735000826
:10001000C9350008CB350008CD35000800000000C8
:10002000000000000000000000000000CF350008C4
:10003000D135000800000000D3350008D535000890
:100040005D3700085D3700085D3700085D37000840
:100050005D3700085D3700085D3700085D37000830
:100060005D3700085D3700085D3700085D37000820
:100070005D3700085D3700085D3700085D37000810
:100080005D3700085D3700085D3700085D37000800
:100090005D3700085D3700085D3700085D370008F0
:1000A0005D3700085D3700085D3700085D370008E0
:1000B000DD3500085D3700085D3700085D37000852
:1000C0005D3700085D3700085D3700085D370008C0
:1000D0005D3700085D370008ED3500085D37000822
:1000E0005D3700085D3700085D370008000000003C
:1000F0000000000000000000000000000000000000
:0C01000000000000000000005FF808F1A3
:1001100010B5054C237833B9044B13B10448AFF341
:1001200000800123237010BDB809002000000000EA
:10013000A47A000808B5034B1BB103490348AFF389
:10014000008008BD00000000BC090020A47A00085F
:1001500081F0004102E000BF83F0004330B54FEA78
:1001600041044FEA430594EA050F08BF90EA020FE5
:100170001FBF54EA000C55EA020C7FEA645C7FEA78
:10018000655C00F0E2804FEA5454D4EB5555B8BF9B
:100190006D420CDD2C4480EA020281EA030382EA0C
:1001A000000083EA010180EA020281EA0303362D9E
:1001B00088BF30BD11F0004F4FEA01314FF4801C71
:1001C0004CEA113102D0404261EB410113F0004F83
:1001D0004FEA03334CEA133302D0524263EB43033A
:1001E00094EA050F00F0A780A4F10104D5F1200ED8
:1001F0000DDB02FA0EFC22FA05F2801841F1000133
:1002000003FA0EF2801843FA05F359410EE0A5F106
:1002100020050EF1200E012A03FA0EFC28BF4CF037
:10022000020C43FA05F3C01851EBE37101F00045ED
:1002300007D54FF0000EDCF1000C7EEB00006EEBFA
:100240000101B1F5801F1BD3B1F5001F0CD3490884
:100250005FEA30004FEA3C0C04F101044FEA4452DB
:1002600012F5800F80F09A80BCF1004F08BF5FEA62
:10027000500C50F1000041EB045141EA050130BD42
:100280005FEA4C0C404141EB010111F4801FA4F1E5
:100290000104E9D191F0000F04BF01460020B1FA3A
:1002A00081F308BF2033A3F10B03B3F120020CDA72
:1002B0000C3208DD02F1140CC2F10C0201FA0CF050
:1002C00021FA02F10CE002F11402D8BFC2F1200CB5
:1002D00001FA02F120FA0CFCDCBF41EA0C0190406B
:1002E000E41AA2BF01EB0451294330BD6FEA0404B4
:1002F0001F3C1CDA0C340EDC04F11404C4F120029F
:1003000020FA04F001FA02F340EA030021FA04F3B0
:1003100045EA030130BDC4F10C04C4F1200220FA07
:1003200002F001FA04F340EA0300294630BD21FA45
:1003300004F0294630BD94F0000F83F4801306BF0B
:1003400081F480110134013D4EE77FEA645C18BFFF
:100350007FEA655C29D094EA050F08BF90EA020F96
:1003600005D054EA000C04BF1946104630BD91EA8E
:10037000030F1EBF0021002030BD5FEA545C05D191
:100380004000494128BF41F0004130BD14F58004D0
:100390003CBF01F5801130BD01F0004545F0FE4144
:1003A00041F470014FF0000030BD7FEA645C1ABF79
:1003B000194610467FEA655C1CBF0B46024650EAB0
:1003C000013406BF52EA033591EA030F41F40021DC
:1003D00030BD00BF90F0000F04BF0021704730B562
:1003E0004FF4806404F132044FF000054FF0000137
:1003F00050E700BF90F0000F04BF0021704730B5F8
:100400004FF4806404F1320410F0004548BF4042CC
:100410004FF000013EE700BF42004FEAE2014FEA21
:1004200031014FEA02701FBF12F07F4393F07F4FFC
:1004300081F06051704732F07F4208BF704793F0FF
:100440007F4F04BF41F40021704730B54FF4607412
:1004500001F0004521F000411CE700BF50EA010215
:1004600008BF704730B54FF000050AE050EA0102BE
:1004700008BF704730B511F0004502D5404261EB2E
:1004800041014FF4806404F132045FEA915C3FF46F
:10049000D8AE4FF003025FEADC0C18BF03325FEA0C
:1004A000DC0C18BF033202EBDC02C2F1200300FABD
:1004B00003FC20FA02F001FA03FE40EA0E0021FAE2
:1004C00002F11444BDE600BF70B54FF0FF0C4CF4D0
:1004D000E06C1CEA11541DBF1CEA135594EA0C0F82
:1004E00095EA0C0F00F0DEF82C4481EA030621EABD
:1004F0004C5123EA4C5350EA013518BF52EA0335F8
:1005000041F4801143F4801338D0A0FB02CE4FF0A9
:100510000005E1FB02E506F00042E0FB03E54FF0D9
:100520000006E1FB03569CF0000F18BF4EF0010ED1
:10053000A4F1FF04B6F5007F64F5407404D25FEACD
:100540004E0E6D4146EB060642EAC62141EA555180
:100550004FEAC52040EA5E504FEACE2EB4F1FD0CC2
:1005600088BFBCF5E06F1ED8BEF1004F08BF5FEA40
:10057000500E50F1000041EB045170BD06F00046F2
:1005800046EA010140EA020081EA0301B4EB5C049F
:10059000C2BFD4EB0C0541EA045170BD41F4801197
:1005A0004FF0000E013C00F3AB8014F1360FDEBFBC
:1005B000002001F0004170BDC4F10004203C35DA98
:1005C0000C341BDC04F11404C4F1200500FA05F31B
:1005D00020FA04F001FA05F240EA020001F00042BC
:1005E00021F0004110EBD37021FA04F642EB060132
:1005F0005EEA430E08BF20EAD37070BDC4F10C045C
:10060000C4F1200500FA04F320FA05F001FA04F21F
:1006100040EA020001F0004110EBD37041F100010B
:100620005EEA430E08BF20EAD37070BDC4F1200516
:1006300000FA05F24EEA020E20FA04F301FA05F27E
:1006400043EA020321FA04F001F0004121FA04F226
:1006500020EA020000EBD3705EEA430E08BF20EAF6
:10066000D37070BD94F0000F0FD101F00046400030
:1006700041EB010111F4801F08BF013CF7D041EAB2
:10068000060195F0000F18BF704703F000465200B6
:1006900043EB030313F4801F08BF013DF7D043EA87
:1006A0000603704794EA0C0F0CEA135518BF95EA3D
:1006B0000C0F0CD050EA410618BF52EA4306D1D1C4
:1006C00081EA030101F000414FF0000070BD50EAE3
:1006D000410606BF1046194652EA430619D094EA6D
:1006E0000C0F02D150EA013613D195EA0C0F05D157
:1006F00052EA03361CBF104619460AD181EA0301AB
:1007000001F0004141F0FE4141F470014FF0000062
:1007100070BD41F0FE4141F4780170BD70B54FF0FD
:10072000FF0C4CF4E06C1CEA11541DBF1CEA13557D
:1007300094EA0C0F95EA0C0F00F0A7F8A4EB05045F
:1007400081EA030E52EA03354FEA013100F0888056
:100750004FEA03334FF0805545EA131343EA12631F
:100760004FEA022245EA111545EA10654FEA0026D4
:100770000EF000419D4208BF964244F1FD0404F58D
:10078000407402D25B084FEA3202B61A65EB0305E9
:100790005B084FEA32024FF480104FF4002CB6EBA6
:1007A000020E75EB030E22BFB61A754640EA0C0026
:1007B0005B084FEA3202B6EB020E75EB030E22BF66
:1007C000B61A754640EA5C005B084FEA3202B6EBA7
:1007D000020E75EB030E22BFB61A754640EA9C0066
:1007E0005B084FEA3202B6EB020E75EB030E22BF36
:1007F000B61A754640EADC0055EA060E18D04FEAF4
:10080000051545EA16754FEA06164FEAC30343EA93
:1008100052734FEAC2025FEA1C1CC0D111F4801F60
:100820000BD141EA00014FF000004FF0004CB6E759
:1008300011F4801F04BF01430020B4F1FD0C88BFF8
:10084000BCF5E06F3FF6AFAEB5EB030C04BFB6EB03
:10085000020C5FEA500C50F1000041EB045170BDF6
:100860000EF0004E4EEA113114EB5C04C2BFD4EB23
:100870000C0541EA045170BD41F480114FF0000EA7
:10088000013C90E645EA060E8DE60CEA135594EA23
:100890000C0F08BF95EA0C0F3FF43BAF94EA0C0F26
:1008A0000AD150EA01347FF434AF95EA0C0F7FF49B
:1008B00025AF104619462CE795EA0C0F06D152EAEF
:1008C00003353FF4FDAE1046194622E750EA4106D3
:1008D00018BF52EA43067FF4C5AE50EA41047FF4E4
:1008E0000DAF52EA43057FF4EBAE12E74FF0FF3C49
:1008F00006E000BF4FF0010C02E000BF4FF0010C1A
:100900004DF804CD4FEA410C7FEA6C5C4FEA430C92
:1009100018BF7FEA6C5C1BD001B050EA410C0CBFE1
:1009200052EA430C91EA030F02BF90EA020F002043
:10093000704710F1000F91EA030F58BF994208BFAA
:1009400090422CBFD8176FEAE37040F00100704767
:100950004FEA410C7FEA6C5C02D150EA013C07D1BE
:100960004FEA430C7FEA6C5CD6D152EA033CD3D009
:100970005DF8040B704700BF8446104662468C4603
:100980001946634600E000BF01B5FFF7B7FF002836
:1009900048BF10F1000F01BD4DF808EDFFF7F4FF5F
:1009A0000CBF012000205DF808FB00BF4DF808EDEA
:1009B000FFF7EAFF34BF012000205DF808FB00BF0D
:1009C0004DF808EDFFF7E0FF94BF012000205DF82F
:1009D00008FB00BF4DF808EDFFF7CEFF94BF0120E4
:1009E00000205DF808FB00BF4DF808EDFFF7C4FFDD
:1009F00034BF012000205DF808FB00BF4FEA410230
:100A000012F5001215D211D56FF47873B3EB625260
:100A100012D94FEAC12343F0004343EA505311F087
:100A2000004F23FA02F018BF404270474FF0000019
:100A3000704750EA013005D111F0004008BF6FF057
:100A4000004070474FF00000704700BF4FEA41027E
:100A5000B2F1E04324BFB3F5001CDCF1FE5C0DD91C
:100A600001F0004C4FEAC0024CEA5070B2F1004F66
:100A700040EB830008BF20F00100704711F0804F69
:100A800021D113F13872BCBF01F00040704741F42E
:100A900080114FEA5252C2F11802C2F1200C10FA32
:100AA0000CF320FA02F018BF40F001004FEAC12316
:100AB0004FEAD32303FA0CFC40EA0C0023FA02F3BA
:100AC0004FEA4303CCE77FEA625307D150EA013390
:100AD0001EBF4FF0FE4040F44000704701F0004060
:100AE00040F0FE4040F40000704700BF80EA010C77
:100AF0001CF0030F37D110F0030C20F0030021F09D
:100B0000030150F8042B08BF51F8043B0ED08CF0C1
:100B1000030C6FF07F434FEACC0C23FA0CFC51F826
:100B2000043B42EA0C0243EA0C0300BFA2F1013C81
:100B30009A4201BF2CEA020C1CF0803F50F8042BB3
:100B400051F8043BF2D04FEA02604FEA122201282A
:100B500028BFB0EB036F08BF1B0AF4D003F0FF03FC
:100B6000000EC01A704710F0030F0AD010F8012BC6
:100B700011F8013B012A28BF9A42F4D0A2EB0300EE
:100B800070474DF8045D50F8042B01F0030521F087
:100B9000030151F8043B022D26D04DD822F07F45A9
:100BA000B5EB132FA2F1013C2CEA020C0DD11CF085
:100BB000803C08BF51F8043B0AD185EA0205B5EB39
:100BC000036F0CD150F8042BE8E74FEA13235BE0E6
:100BD0003CF07F4C54D10B784FEA126554E04FEA59
:100BE000126503F0FF034FE04FEA0245A2F1013C1A
:100BF0004FEA15452CEA020CB5EB134F18D11CF047
:100C0000803C08BF51F8043B07D185EA0205B5EBEB
:100C1000034F09D150F8042BE6E75FEA0C4C2FD1C3
:100C20000B884FEA12452FE04FEA03434FEA124583
:100C30004FEA134328E000BF02F0FF05B5EB136F46
:100C4000A2F1013C2CEA020C0DD11CF0803C08BF43
:100C500051F8043B0AD185EA0205B5EB032F0AD10E
:100C600050F8042BE8E74FEA13630DE012F0FF0F92
:100C700006D051F8043B4FEA122523F07F4303E0EE
:100C80004FF0000020BC704705F0FF0203F0FF00AA
:100C9000012828BF904204BF2D0A1B0AF4D0A2EB02
:100CA000000020BC704700BF844641EA000313F0F7
:100CB000030349D1403A23D30B6803604B68436078
:100CC0008B688360CB68C3600B6903614B694361C8
:100CD0008B698361CB69C3610B6A03624B6A4362B0
:100CE0008B6A8362CB6AC3620B6B03634B6B436398
:100CF0008B6B8363CB6BC36340304031403ADBD2B4
:100D000030320BD30B6803604B6843608B688360A1
:100D1000CB68C36010301031103AF3D20C3205D3D7
:100D200051F8043B40F8043B043AF9D2043208D0AD
:100D3000D2071CBF11F8013B00F8013B01D30B881F
:100D400003806046704700BF082A13D38B07B1D0D9
:100D500010F00303AED0C3F10403D21ADB071CBFAB
:100D600011F8013B00F8013BA4D331F8023B20F815
:100D7000023B9FE7043AD9D3013A11F8013B00F84E
:100D8000013BF9D20B7803704B7843708B788370FA
:100D9000604670474FEA410C7FEA6C5C02D150EA32
:100DA000013C0AD14FEA430C7FEA6C5C02D152EA63
:100DB000033C02D14FF0000070474FF00100704734
:100DC00053B94AB9002908BF00281CBF4FF0FF31B2
:100DD0004FF0FF3000F074B9ADF1080C6DE904CEAE
:100DE00000F006F8DDF804E0DDE9022304B0704706
:100DF0002DE9F0478C460446089E002B4BD18A42D1
:100E0000154667D9B2FA82F24AB1C2F1200701FA57
:100E100002F320FA07F7954047EA030C94404FEAA3
:100E2000154EBCFBFEF71FFA85F80EFB17C307FB38
:100E300008F9210C41EA0343994509D9EB1807F158
:100E4000FF3180F01C81994540F21981023F2B440B
:100E5000A3EB0903B3FBFEF00EFB103300FB08F11C
:100E6000A4B244EA0344A14209D92C1900F1FF338A
:100E700080F00781A14240F2048102382C4440EA0C
:100E800007400027641A1EB10023D440C6E900437E
:100E90003946BDE8F0878B4209D9002E00F0EC807E
:100EA0000027C6E9000138463946BDE8F087B3FAA5
:100EB00083F7002F48D18B4202D3824200F2FB809D
:100EC000841A61EB030301209C46002EE0D0C6E9A2
:100ED000004CDDE702B9FFDEB2FA82F2002A40F0F0
:100EE0008F800127491B4FEA15481FFA85F9B1FB8E
:100EF000F8FE08FB1E1109FB0EF04FEA144C4CEAF9
:100F00000143984207D9EB180EF1FF3102D2984203
:100F100000F2CD808E461B1AB3FBF8F008FB1033AD
:100F200009FB00F9A4B244EA0344A14507D92C19EE
:100F300000F1FF3302D2A14500F2B6801846A4EBBF
:100F4000090440EA0E409EE7C7F12005BB4022FAA3
:100F500005FC4CEA030C21FA05F44FEA1C4EB4FBE5
:100F6000FEF91FFA8CF80EFB194420FA05F3B9407C
:100F700009FB08FA19430B0C43EA0444A24502FAA0
:100F800007F200FA07F30BD91CEB040409F1FF3058
:100F900080F08880A24540F28580A9F1020964446E
:100FA000A4EB0A04B4FBFEF00EFB104400FB08FAAD
:100FB00089B241EA0444A24508D91CEB040400F1BB
:100FC000FF316BD2A24569D90238644440EA094036
:100FD000A0FB0289A4EB0A044C454146CE4654D3FB
:100FE00051D0002E69D05A1A64EB0E0404FA05F5AC
:100FF00022FA07F3FC401D43C6E90054002747E7E7
:101000009540C2F1200321FA03F04FEA1548B0FBE6
:10101000F8F71FFA85F908FB170024FA03F391404B
:1010200007FB09FC0B43190C41EA00418C4504FA0B
:1010300002F407D9691807F1FF3031D28C452FD956
:10104000023F2944A1EB0C01B1FBF8F008FB101C96
:1010500000FB09FE99B241EA0C418E4507D9691897
:1010600000F1FF3318D28E4516D902382944A1EB7E
:101070000E0140EA07473AE73746304608E70F4691
:10108000E6E61846FBE64345ABD2B8EB020169EB56
:101090000C0201389646A4E71846E8E7084695E7AB
:1010A0000746CFE781467BE702382C4447E7AEF19D
:1010B000020E2B442FE7384607E73746E8E600BF25
:1010C000704700BF10B504460E4B18784FF47A7382
:1010D000B3FBF0F30C4A1068B0FBF3F000F0A0F89B
:1010E00068B90F2C01D901200AE0002221464FF0F7
:1010F000FF3000F055F8034B5C60002000E0012059
:1011000010BD00BF000000200800002008B5074AFD
:10111000136843F010031360032000F02FF8002041
:10112000FFF7D0FF02F054F9002008BD0020024074
:10113000034A1168034B1B780B441360704700BFD0
:10114000240A002000000020014B1868704700BFEF
:10115000240A002038B50446FFF7F6FF0546B4F12F
:10116000FF3F02D0044B1B781C44FFF7EDFF401BF0
:10117000A042FAD338BD00BF00000020074AD36860
:1011800023F4E0631B041B0C000200F4E06018432E
:1011900040F0BF6040F40030D060704700ED00E0E8
:1011A00030B4174BDB68C3F30223C3F10704042CEC
:1011B00028BF04241D1D062D18D9033B4FF0FF3511
:1011C00005FA04F421EA0401994005FA03F322EA3E
:1011D0000303194300280BDB0901C9B200F1604089
:1011E00000F5614080F8001330BC70470023E5E74C
:1011F00000F00F000901C9B2024B1954F4E700BF17
:1012000000ED00E014ED00E000F01F0240090123B2
:101210009340024A42F82030704700BF00E100E0EE
:101220000138B0F1807F0AD2064B5860064AF0219F
:1012300082F823100020986007221A60704701206E
:10124000704700BF10E000E000ED00E008B590F846
:101250002130022B03D004238363012008BD0268E0
:10126000136823F00E0313600268136823F0010370
:1012700013600368194A934214D0143293421FD06A
:10128000143293421ED0143293421ED01432934231
:101290001ED01432934202D04FF0807203E04FF41C
:1012A000801200E001220E4B5A60012380F82130A9
:1012B000002380F82030436B6BB198470020CDE7C6
:1012C0001022F0E74FF48072EDE74FF48052EAE726
:1012D0004FF48032E7E70020C0E700BF080002407B
:1012E00000000240F0B482B000263546A1E0002C98
:1012F00059D0012C00D1CE68FF2B68D88446FF2B33
:1013000068D8AC00DCF800200F27A74022EA0702CB
:1013100006FA04F42243CCF800204A6812F0805FF9
:1013200000F086805E4A946944F0010494619269F9
:1013300002F001020192019AAC08A71C594A52F826
:10134000272005F00307BF004FF00F0C0CFA07FC35
:1013500022EA0C0C544A904242D002F5806290423C
:101360007FD002F5806290427DD002F5806290428B
:1013700034D0042235E04D4FBC4214D00BD94C4F31
:10138000BC4210D007F58037BC420CD0A7F58017BF
:10139000BC42B1D107E0A7F58017BC4203D007F5E6
:1013A0008037BC42A8D18C687CB1012C08D0426146
:1013B0000826A1E7CE6808369EE7CE680C369BE784
:1013C0000261082698E7002696E7042694E700F1D4
:1013D000040C94E7A5F10804A40093E7032200E0BD
:1013E0000022BA4042EA0C0202342E4F47F8242071
:1013F0004A6812F4803F38D02E4C22681A4322608B
:101400004A6812F4003F36D02A4C62681A43626080
:101410004A6812F4801F34D0264CA2681A43A26096
:101420004A6812F4001F32D0224CE2681343E36092
:1014300001350F2D31D80122AA400B6813409A4282
:10144000F6D14C68122CB8D095D8022CB2D07FF6C9
:101450004EAF032CB7D0112C7FF44EAFCE680436BC
:101460004AE70122BDE70222BBE7124C226822EACA
:1014700003022260C4E70F4C626822EA0302626042
:10148000C6E70C4CA26822EA0302A260C8E7094C36
:10149000E26822EA0303E360CAE702B0F0BC7047E7
:1014A000001002400000014000080140000021102F
:1014B000000031100004014012B9090401617047B5
:1014C0000161704782B0084B1B68084AA2FB0323E6
:1014D0005B0A00FB03F0019000BF019B5A1E0192C2
:1014E000002BF9D102B0704708000020D34D6210E4
:1014F00070B582B00446036813F0010F2CD0AB4BDB
:101500005B6803F00C03042B1DD0A84B5B6803F051
:101510000C03082B12D06368B3F5803F41D0002B39
:1015200055D103F1804303F504331A6822F4803265
:101530001A601A6822F480221A6037E09B4B5B68BD
:1015400013F4803FE7D0994B1B6813F4003F03D09E
:101550006368002B00F0AE81236813F0020F76D091
:10156000924B5B6813F00C0F5FD0904B5B6803F0FD
:101570000C03082B54D02369002B00F08A808C4B7D
:1015800001221A60FFF7E0FD0546884B1B6813F047
:10159000020F75D1FFF7D8FD401B0228F5D90320B3
:1015A0008BE1824A136843F480331360636843B36A
:1015B000FFF7CAFD05467D4B1B6813F4003FCBD1F6
:1015C000FFF7C2FD401B6428F5D9032075E1B3F590
:1015D000A02F09D0754B1A6822F480321A601A685D
:1015E00022F480221A60E1E703F18043A3F53C3343
:1015F0001A6842F480221A601A6842F480321A6033
:10160000D4E7FFF7A1FD0546684B1B6813F4003FC4
:10161000A2D0FFF799FD401B6428F5D903204CE1C7
:10162000624B5B6813F4803FA5D1604B1B6813F0DD
:10163000020F04D02369012B01D001203DE15B4A58
:10164000136823F0F803616943EAC1031360236858
:1016500013F0080F32D0A369002B5BD0554B012249
:101660001A60FFF771FD0546504B5B6A13F0020FDD
:1016700021D1FFF769FD401B0228F5D903201CE1A9
:101680004A4A136823F0F803616943EAC10313600F
:10169000DDE7474B00221A60FFF756FD0546434B36
:1016A0001B6813F0020FD2D0FFF74EFD401B02283B
:1016B000F5D9032001E10120FFF704FF236813F0AF
:1016C000040F00F09780394BDB6913F0805F33D152
:1016D000364BDA6942F08052DA61DB6903F08053FD
:1016E0000193019B0125344B1B6813F4807F25D0A7
:1016F000E368012B36D0002B4CD103F1804303F576
:1017000004331A6A22F001021A621A6A22F00402F1
:101710001A622CE0274B00221A60FFF715FD0546E0
:10172000224B5B6A13F0020FC8D0FFF70DFD401B80
:101730000228F5D90320C0E00025D4E71E4A13682B
:1017400043F480731360FFF7FFFC06461A4B1B68D7
:1017500013F4807FCCD1FFF7F7FC801B6428F5D908
:101760000320AAE0114A136A43F001031362E368FD
:1017700073B3FFF7E9FC06460C4B1B6A13F0020F2C
:1017800037D1FFF7E1FC801B41F288339842F3D94F
:10179000032092E0052B11D0044B1A6A22F00102BB
:1017A0001A621A6A22F004021A62E0E7001002408C
:1017B000000042428004424200700040414B1A6ADD
:1017C00042F004021A621A6A42F001021A62CEE77B
:1017D000FFF7BAFC06463B4B1B6A13F0020F08D01A
:1017E000FFF7B2FC801B41F288339842F3D9032003
:1017F00063E0E5B9E369002B5ED0324A526802F03B
:101800000C02082A5BD0022B17D02F4B00221A6043
:10181000FFF79AFC04462B4B1B6813F0007F47D060
:10182000FFF792FC001B0228F5D9032045E0254A6A
:10183000D36923F08053D361DCE7234B00221A6085
:10184000FFF782FC05461F4B1B6813F0007F06D094
:10185000FFF77AFC401B0228F5D903202DE0236A0C
:10186000B3F5803F1AD017494B6823F47413226AEA
:10187000606A024313434B60134B01221A60FFF767
:1018800063FC04460F4B1B6813F0007F0ED1FFF77B
:101890005BFC001B0228F5D903200EE0094A5368BF
:1018A00023F40033A1680B435360DCE7002004E01D
:1018B000002002E0012000E0002002B070BD012005
:1018C000FBE700BF001002406000424210B487B046
:1018D000164C94E80F000DF1180C0CE90F00238A48
:1018E000ADF80430124B5B6803F00C02082A1AD1E1
:1018F000C3F38342624412F8102C13F4803F05D1E5
:101900000C4800FB02F007B010BC7047084B5B6846
:10191000C3F34043634413F8143C074800FB02F050
:10192000B0FBF3F0EFE70448EDE700BFC07A000832
:101930000010024000093D0000127A00624B1B6853
:1019400003F007038B420CD25F4A136823F00703AE
:101950000B431360136803F007038B4201D001208F
:10196000704770B5036813F0020F17D013F0040F1F
:1019700004D0564A536843F4E0635360036813F09D
:10198000080F04D0514A536843F4605353604F4AE0
:10199000536823F0F0038468234353600D460446E4
:1019A000036813F0010F52D04368012B23D0022BA0
:1019B00028D0464A126812F0020F00F08280434994
:1019C0004A6822F0030213434B60FFF7BDFB064653
:1019D0006368012B1DD0022B2AD03C4B5B6813F0AF
:1019E0000C0F34D0FFF7B0FB801B41F288339842D4
:1019F000F3D9032064E0354A126812F4003FDED1C7
:101A000001205DE0314A126812F0007FD7D1012039
:101A100056E02E4B5B6803F00C03042B17D0FFF746
:101A200093FB801B41F288339842F2D9032047E0B0
:101A3000264B5B6803F00C03082B08D0FFF784FBF0
:101A4000801B41F288339842F2D9032038E01E4BC4
:101A50001B6803F00703AB420CD91B4A136823F041
:101A600007032B431360136803F00703AB4201D055
:101A7000012025E0236813F0040F06D0134A5368B1
:101A800023F4E063E1680B435360236813F0080F0D
:101A900007D00E4A536823F46053216943EAC10317
:101AA0005360FFF713FF094B5B68C3F30313084A46
:101AB000D35CD840074B18600020FFF703FB0020E1
:101AC00070BD0120FCE700BF002002400010024072
:101AD000D47A000808000020014B1868704700BF46
:101AE0000800002008B5FFF7F7FF044B5B68C3F35D
:101AF0000223034AD35CD84008BD00BF0010024057
:101B0000E47A000808B5FFF7E7FF044B5B68C3F30E
:101B1000C223034AD35CD84008BD00BF0010024076
:101B2000E47A0008F8B505460F4616461C463BE029
:101B30002CB1FFF709FB069BC01AA04234D32A68D8
:101B4000536823F0E00353606B68B3F5827F0BD0DA
:101B5000AB6AB3F5005F14D0012385F85130002340
:101B600085F85030032027E0AB68B3F5004F02D072
:101B7000B3F5806FECD12A68136823F0400313603B
:101B8000E6E72A68136823F400531B041B0C136058
:101B90002A68136843F400531360DDE70123B3425E
:101BA00009D0B4F1FF3FC3D12B689B6837EA030328
:101BB000F4D00023F3E70020F8BD10B582B004464E
:101BC00000920B4600228021FFF7ACFF034610B9BC
:101BD000184602B010BD636D43F020036365032314
:101BE000F6E72DE9F04385B099460C9D90F850300A
:101BF000012B00F0108104460F461646012380F8A1
:101C00005030FFF7A1FA804694F85130DBB2626899
:101C1000012B15D0B2F5827F0AD00223012284F86D
:101C20005120002284F85020184605B0BDE8F0830A
:101C3000A268002A40F0E780042B01D00223EDE7E0
:101C4000002F00F0E280002E00F0E180B9F1000FDB
:101C500000F0DF8094F85130DBB2012B2BD0002351
:101C60006365A663A4F83E90A4F83C902763A4F8AB
:101C70003690A4F834902364636423681A6812F0E1
:101C8000400F03D11A6842F040021A60E368B3F5CE
:101C9000006F14D063681BB1E38E9BB2012B07D198
:101CA000236817F8012B1A73E38E013B9BB2E3867E
:101CB0004FF0010961E0052384F85130CFE76368F4
:101CC0001BB1E38E9BB2012B07D1236837F8022B9F
:101CD000DA60E38E013B9BB2E3864FF0010913E02B
:101CE000E38F9BB26BB123689A6812F0010F08D0A2
:101CF000DB6826F8023BE38F013B9BB2E3874FF0A2
:101D00000109B5F1FF3F1CD1E38E9BB21BB9E38FF4
:101D10009BB2002B55D0B9F1000FE1D0E38E9BB2FE
:101D2000002BDDD023689A6812F0020FD8D037F864
:101D3000022BDA60E38E013B9BB2E3864FF0000991
:101D4000CEE7FFF701FAA0EB0800A842DCD303239B
:101D500064E7E38F9BB26BB123689A6812F0010FBE
:101D600008D0DB683370E38F013B9BB2E387013619
:101D70004FF00109B5F1FF3F1BD1E38E9BB213B9C0
:101D8000E38F9BB2EBB1B9F1000FE2D0E38E9BB2CF
:101D9000002BDED023689A6812F0020FD9D03A786F
:101DA0001A73E38E013B9BB2E38601374FF00009C3
:101DB000CFE7FFF7C9F9A0EB0800A842DDD3032362
:101DC0002CE7CDF800802B46012202212046FFF7A8
:101DD000A9FE08B1032321E7424629462046FFF722
:101DE000ECFE034618B120236365012316E7A268C1
:101DF000002A7FF413AF03922268D168039192689E
:101E00000392039A0AE7022308E7012306E7012366
:101E100004E7012302E7022306E72DE9F04182B03F
:101E200004460D4617461E464368B3F5827F19D017
:101E300094F85030012B00F0A280012384F8503038
:101E4000FFF782F9804694F85130DBB2012B15D0B0
:101E50000220012384F85130002384F8503002B06E
:101E6000BDE8F0818368002BE2D1042380F8513073
:101E7000009613460A46FFF7B4FEF0E7002D74D033
:101E8000002F74D0042384F8513000236365A563C8
:101E9000A787E7872363A386E38623646364A36835
:101EA000B3F5004F0BD023681A6812F0400F03D12E
:101EB0001A6842F040021A60E3685BB128E02268C9
:101EC000136823F480431360EDE7002E51D0B6F180
:101ED000FF3F10D1E38F9BB2002B31D023689A686B
:101EE00012F0010FF1D01B7B05F8013BE38F013BA2
:101EF0009BB2E387EEE7FFF727F9A0EB0800B042BB
:101F0000E8D30320A5E7002E35D0B6F1FF3F0FD16F
:101F1000E38F9BB2A3B123689A6812F0010FF2D04D
:101F2000DB6825F8023BE38F013B9BB2E387EFE7D9
:101F3000FFF70AF9A0EB0800B042E9D3032088E7D5
:101F40006368B3F5827F03D0636DB3B9002080E787
:101F5000A368B3F5004F02D0B3F5806FF4D12268C7
:101F6000136823F040031360EEE7012071E70120BE
:101F70006FE703206DE703206BE7012069E702208C
:101F80006DE700283CD010B504460023836290F82A
:101F90005130002B31D0022384F85130226813686D
:101FA00023F0400313606368A2681343E26813439D
:101FB0002269134362691343A26902F40072134356
:101FC000E2691343226A1343A16A22680B43136038
:101FD000638B03F00403616A22680B435360236838
:101FE000E26A1A612268D36923F40063D361002096
:101FF0006065012384F8513010BD01F00BFACAE787
:102000000120704770B4036A23F001030362036A7E
:102010004268846924F073040D6845EA040623F0DD
:1020200002048B6823430D4DA84209D00B4DA842F2
:102030000DD0426086614A684263036270BC70479B
:1020400023F00803CC68234323F00403EEE722F4D3
:1020500040724C6914438A692243EAE7002C01402C
:1020600030B4036A23F480730362036A4268C4696C
:1020700024F073040D682C4323F400738D6843EA45
:1020800005230F4DA84209D00D4DA8420ED0426045
:10209000C4614A68C263036230BC704723F40063C2
:1020A000CD6843EA052323F48063EDE722F4405230
:1020B0004D6942EA05128D6942EA0512E7E700BF61
:1020C000002C014030B4036A23F480530362036A96
:1020D0004468C26922F4E6420D6842EA052223F40C
:1020E00000538D6843EA0533074DA84206D044608B
:1020F000C2614A680264036230BC704724F48044C1
:102100004D6944EA8514F2E7002C014010B4036ADB
:10211000046A24F001040462846924F0F00444EAAF
:10212000021223F00A030B438261036210BC704762
:1021300010B4036A23F0100303628469036A24F471
:10214000704444EA023223F0A00343EA011382619F
:10215000036210BC7047836823F0700341F00701ED
:1021600019438160704710B4846824F47F4442EAC4
:1021700003230B432343836010BC704710B50468EE
:10218000A26822F070024B68134323F007030A6829
:102190001343A3604B68502B1ED00AD9602B21D06B
:1021A000702B05D10B698A68C9680068FFF7DBFFEF
:1021B00010BD402BFCD103681C6A1A6A22F0010290
:1021C0001A620268936923F0F003096943EA011374
:1021D000936103681C62EBE70A6989680068FFF78E
:1021E00095FFE5E70A6989680068FFF7A1FFDFE767
:1021F000022380F83D300268136843F00103136046
:10220000012380F83D3000207047704790F83C3043
:10221000012B7DD010B50446012380F83C30022309
:1022200080F83D300268936823F47F4323F07703FE
:1022300093600B68402B57D010D9702B3ED01FD81D
:10224000502B47D0602B32D1CA6849680068FFF72D
:102250006FFF60212068FFF77EFF28E0102B4DD034
:1022600008D9202B4FD0302B21D130210068FFF727
:1022700072FF1CE0DBB900210068FFF76CFF16E07D
:10228000B3F5805F0ED0B3F5005F10D1CB684A681C
:1022900089680068FFF767FF2268936843F480430A
:1022A000936004E00268936823F0070393600123BE
:1022B00084F83D30002084F83C0010BDCB684A68AB
:1022C00089680068FFF74FFF2268936843F077033F
:1022D0009360ECE7CA6849680068FFF717FF502170
:1022E0002068FFF738FFE2E7CA6849680068FFF72F
:1022F0000DFF40212068FFF72EFFD8E7102100686E
:10230000FFF729FFD3E720210068FFF724FFCEE77E
:102310000220704738B590F83C30012B18D00446A5
:10232000012580F83C50022380F83D30FFF726FF5E
:102330002268D36823F04003D3602268D36823F473
:102340008043D36084F83D50002084F83C0038BDC1
:102350000220FCE7704770477047704710B504468D
:1023600003681A6912F0020F11D0DA6812F0020F36
:102370000DD06FF002021A610123037703689B6995
:1023800013F0030F70D0FFF7E6FF002323772368D5
:102390001A6912F0040F12D0DA6812F0040F0ED08E
:1023A0006FF004021A610223237723689B6913F4F8
:1023B000407F5FD02046FFF7CEFF002323772368BE
:1023C0001A6912F0080F12D0DA6812F0080F0ED056
:1023D0006FF008021A61042323772368DB6913F086
:1023E000030F4ED02046FFF7B6FF00232377236864
:1023F0001A6912F0100F12D0DA6812F0100F0ED016
:102400006FF010021A61082323772368DB6913F445
:10241000407F3DD02046FFF79EFF002323772368AF
:102420001A6912F0010F03D0DA6812F0010F36D1E9
:1024300023681A6912F0800F03D0DA6812F0800F57
:1024400034D123681A6912F0400F03D0DA6812F011
:10245000400F32D123681A6912F0200F03D0DA68D6
:1024600012F0200F30D110BD00F098FE2046FFF78B
:1024700073FF8AE7204600F091FE2046FFF76CFFCD
:102480009BE7204600F08AFE2046FFF765FFACE799
:10249000204600F083FE2046FFF75EFFBDE76FF0A9
:1024A00001021A612046FFF755FFC1E76FF0800275
:1024B0001A61204600F050F9C3E76FF040021A613C
:1024C0002046FFF74AFFC5E76FF020021A61204659
:1024D00000F041F9C7E7000003681B4A90420AD0A8
:1024E000B0F1804F07D0A2F59432904203D002F5AC
:1024F0008062904203D123F070034A681343124A6A
:1025000090420AD0B0F1804F07D0A2F594329042A9
:1025100003D002F58062904203D123F44073CA686D
:10252000134323F080034A69134303608B68C3623B
:102530000B688362044B984202D0012343617047C9
:102540000B690363F9E700BF002C0140A8B110B587
:10255000044690F83D305BB1022384F83D30211DE4
:102560002068FFF7B9FF012384F83D30002010BD3B
:1025700080F83C3000F088FFEEE701207047A8B1FA
:1025800010B5044690F83D305BB1022384F83D302D
:10259000211D2068FFF7A0FF012384F83D300020B3
:1025A00010BD80F83C30FFF730FEEEE701207047A9
:1025B00030B4036A23F010030362036A446882693B
:1025C00022F4E6420D6842EA052223F020038D68DA
:1025D00043EA05130E4DA84209D00D4DA8420ED076
:1025E000446082614A688263036230BC704723F0B2
:1025F0008003CD6843EA051323F04003EDE724F49C
:1026000040644D6944EA85048D6944EA8504E7E73E
:10261000002C014090F83C30012B28D010B5044626
:10262000012380F83C30022380F83D300C2A0BD87F
:10263000DFE802F0070A0A0A110A0A0A150A0A0A5A
:1026400019000068FFF7DEFC012384F83D3000200C
:1026500084F83C0010BD0068FFF7AAFFF4E70068AB
:10266000FFF7FEFCF0E70068FFF72CFDECE7022027
:10267000704710B4012303FA01F4036A23EA040348
:102680000362036A8A401343036210BC7047000070
:1026900010B504460C290DD8DFE801F0070C0C0C2E
:1026A0001B0C0C0C210C0C0C27000268D36843F0A7
:1026B0000203D36001222068FFF7DBFF2368104A82
:1026C000934218D02268136843F00103136000207E
:1026D00010BD0268D36843F00403D360EAE70268E0
:1026E000D36843F00803D360E4E70268D36843F09B
:1026F0001003D360DEE75A6C42F400425A64E1E70B
:10270000002C014090F83C30012B22D030B4012243
:1027100080F83C20022380F83D300468636823F091
:1027200070036360046863680D682B43636004682A
:10273000A36823F08003A3600468A36849680B437F
:10274000A36080F83D20002380F83C30184630BC60
:10275000704702207047704770470268D36823F4BF
:102760009073D3600268536923F0010353612023FF
:1027700080F83A30704790F83930DBB2212B2AD1FB
:102780008368B3F5805F16D0036A5A1C02621A7818
:1027900003685A60C38C013B9BB2C384EBB90268E7
:1027A000D36823F08003D3600268D36843F040030A
:1027B000D36000207047036A1B880268C3F30803D4
:1027C000536003691BB9036A02330362E2E7036AD9
:1027D00001330362DEE702207047002070470000EB
:1027E0002DE9F84305460268136923F44053C16894
:1027F0000B43136183680269134342691343016801
:10280000CA6822F4B05222F00C021343CB60026873
:10281000536923F4407381690B4353610268594B38
:102820009A4257D0FFF75EF900EB800000EB800082
:102830006C68A400B0FBF4F4534FA7FB04346409A4
:102840002601FFF74FF900EB800000EB80006C6879
:10285000A400B0FBF4F9FFF745F900EB800000EBB2
:1028600080006C68A400B0FBF4F4A7FB0434640996
:102870004FF0640808FB149424013234A7FB04349D
:10288000640904F0F0043444FFF72CF900EB8000F5
:1028900000EB80006E68B600B0FBF6F6FFF722F999
:1028A00000EB800000EB80006B689B00B0FBF3F056
:1028B000A7FB0030400908FB10684FEA081808F130
:1028C0003208A7FB0837C7F343172B6827449F60DC
:1028D000BDE8F883FFF716F900EB800000EB8000FD
:1028E0006C68A400B0FBF4F4274FA7FB0434640920
:1028F0002601FFF707F900EB800000EB80006C6811
:10290000A400B0FBF4F9FFF7FDF800EB800000EB4A
:1029100080006C68A400B0FBF4F4A7FB04346409E5
:102920004FF0640808FB149424013234A7FB0434EC
:10293000640904F0F0043444FFF7E4F800EB80008D
:1029400000EB80006E68B600B0FBF6F6FFF7DAF831
:1029500000EB800000EB80006B689B00B0FBF3F0A5
:10296000A7FB0030400908FB10684FEA081808F17F
:102970003208A7FB0837C7F343172B6827449F602B
:10298000A6E700BF003801401F85EB512DE9F0415B
:1029900005460F4616469846069C2B681B6837EA84
:1029A00003030CBF01230023B3421DD1B4F1FF3F49
:1029B000F3D02CB1FEF7C8FBA0EB0800A042ECD985
:1029C0002A68D36823F4D073D3602A68536923F04C
:1029D00001035361202385F8393085F83A3000230C
:1029E00085F83830032000E00020BDE8F08158B3BE
:1029F00010B5044690F839300BB3242384F83930ED
:102A00002268D36823F40053D3602046FFF7E8FE22
:102A10002268136923F4904313612268536923F0F9
:102A20002A0353612268D36843F40053D360002023
:102A3000E063202384F8393084F83A3010BD80F800
:102A4000383000F07BFDD8E7012070472DE9F041D8
:102A500082B01E4690F83930DBB2202B55D10446A7
:102A60000D469046002955D0002A55D090F83830B0
:102A7000012B53D0012380F838300023C363212376
:102A800080F83930FEF760FB0746A4F82480A4F8EC
:102A9000268010E000963B46002280212046FFF76A
:102AA00075FF00283CD12B882268C3F308035360CC
:102AB0002369C3B90235E38C9BB2B3B1E38C013B0C
:102AC0009BB2E384A368B3F5805FE3D000963B46F6
:102AD000002280212046FFF759FF18BB2A7823687F
:102AE0005A600135E7E70135E5E700963B460022ED
:102AF00040212046FFF74AFF0346A8B9202284F868
:102B00003920002284F8382000E00223184602B061
:102B1000BDE8F0810123F9E70123F7E70223F5E798
:102B20000323F3E70323F1E70323EFE790F83A30B9
:102B3000DBB2202B20D109B312B390F83830012B2F
:102B400020D081628285C2850023C363222280F85F
:102B50003A2080F838300168CA6842F48072CA604E
:102B600001684A6942F001024A610168CA6842F09C
:102B70002002CA6018467047022070470120704743
:102B80000120704702207047704708B50168CB6884
:102B900023F04003CB60202380F83930FFF7F4FFA7
:102BA000002008BD08B590F83A30DBB2222B45D1A1
:102BB0008368B3F5805F0ED0036903BB03685A686E
:102BC000836A591C81621A70C38D013B9BB2C38515
:102BD000F3B1002033E0826A036943B903685B689C
:102BE000C3F308031380836A02338362ECE703684C
:102BF0005B68DBB21380836A01338362E4E70368B6
:102C00005B68826A511C816203F07F031370DBE70B
:102C10000268D36823F02003D3600268D36823F4EA
:102C20008073D3600268536923F00103536120234A
:102C300080F83A3000F0BAFA002000E0022008BD27
:102C40007047000010B5044602681368D1685269E5
:102C500013F00F0005D113F0200F02D011F0200F58
:102C600053D1002867D012F0010202D111F4907FF5
:102C700061D013F0010F06D011F4807F03D0E06B18
:102C800040F00100E06313F0040F04D01AB1E06BD0
:102C900040F00200E06313F0020F04D01AB1E06BC1
:102CA00040F00400E06313F0080F04D01AB1E26BA7
:102CB00042F00802E263E26B002A48D013F0200FD2
:102CC00002D011F0200F24D123685B6903F0400388
:102CD000E26B12F0080F00D13BB32046FFF73DFD39
:102CE00023685A6912F0400F1BD05A6922F0400243
:102CF0005A61636B8BB11A4A5A63606BFEF7A6FA8E
:102D000028B3606B436B984721E02046FFF74AFFEA
:102D10001DE02046FFF746FFD6E72046FFF790FF6D
:102D200015E02046FFF78CFF11E02046FFF788FFF3
:102D30000023E3630BE013F0800F02D011F0800F4B
:102D400006D113F0400F02D011F0400F04D110BD96
:102D50002046FFF710FDFAE72046FFF716FFF6E7DB
:102D6000652D000808B5406A0023C385C384FFF7BA
:102D700067FF08BD08B5037813F0040F0CD1407845
:102D8000DB0843EA4010FDF735FB0022044BFDF75A
:102D90009BFBFDF75BFE08BD00F012FA0020FAE78E
:102DA0000000D03F70B582B00646002202AC24F885
:102DB000042D0C4D4FF400512846FEF77DFB4FF4D7
:102DC000FA63022221463046FFF727F801224FF42A
:102DD00000512846FEF770FB2046FFF7CBFF02B0FC
:102DE00070BD00BF0010014030B589B000240494CC
:102DF000059406940794184B9A6942F010029A6160
:102E00009A6902F010020192019A9A6942F0200236
:102E10009A619A6902F020020292029A9A6942F03B
:102E200004029A619B6903F004030393039B0B4D17
:102E300001224FF400512846FEF73EFB4FF40053A9
:102E400004930123059306940323079304A92846BA
:102E5000FEF748FA09B030BD0010024000100140F2
:102E600008B50D480D4B03604FF482734360002397
:102E700083604FF40062C2600361012242614FF43B
:102E8000007282613022C2610362436283620A235C
:102E9000C362FFF776F808BD7C0A002000300140CD
:102EA00008B50848084B03604FF4E1334360002342
:102EB0008360C36003610C2242618361C361FFF7D9
:102EC00096FD08BD140B00200044004030B593B0BF
:102ED00000240E940F941094119409940A940B9466
:102EE0000C940D9407940894009401940294039414
:102EF0000494059406941C4D4FF080432B602423CA
:102F00006B60AC604FF6FF73EB602C61AC612846E0
:102F1000FFF71CFB4FF480530E930EA92846FFF7D2
:102F200075F92846FFF72BFB0423099360230A93C6
:102F30000B940D9409A92846FFF7ECF9079408941F
:102F400007A92846FFF7DEFB3023009301940223F4
:102F500002930494224669462846FFF75BFB284605
:102F600000F0C6FA13B030BDD40A002030B591B0DD
:102F70000024089409940B940C94019402940394F3
:102F800004940594012206924FF4803307930A9229
:102F900002250D950E934FF4E0130F9306A8FEF74C
:102FA000A7FA0F230193029503944FF480630493CF
:102FB0000594294601A8FEF7C1FC11B030BD000000
:102FC0002DE9F04F99B040F60D23069342220021DF
:102FD00007A800F0F3FB0025614B1D70FEF796F883
:102FE000FFF7C4FFFFF700FFFFF73AFFFFF758FFB7
:102FF000FFF76CFF5B4C2046FFF7FAF829462046A6
:10300000FFF746FB584B41F288321A6042F21072C9
:103010005A6046F2A8129A6047F23052DA600122F2
:103020001A745D7451495248FFF780FD514B0020DE
:103030000021C3E9000100264F4FC3E9026746A7FC
:10304000D7E90067C3E9046700264C4FC3E9066768
:10305000C3E90801C3E90A011D6383F834502C4613
:10306000AA4635E035B109224549464800F012FC30
:1030700000283ED025B14FF0000A434B83F867A0EB
:103080004248FFF78FFE0646FEF75EF805463046DB
:10309000FDF7C2F906460F46009502460B46354835
:1030A00000F090F88346282221462F4800F05EF970
:1030B0002B4B1B784BBB0134952C28DD284B012270
:1030C0001A70BAF1000F28D14FF4FA70FEF742F8E7
:1030D0002D4B93F86750002DC4D02D49581CFDF797
:1030E00005FD0028BED1284B002283F86720AA46A0
:1030F000C6E7284800F034FB1E4DFDF77BF9C5E913
:103100000001002385F83430BAE7013CD4E7002CF5
:10311000D7DC134B00221A70D3E7164BD3E908898A
:10312000D3E90001FDF76AFC049040464946FDF7EB
:1031300065FC0390CBF1B4030293CDE900672A4606
:10314000154906A800F084FB4FF47A73462206A9BD
:103150000748FFF77BFCB7E79A9999999999C93F76
:103160003C0A0020D40A0020280A0020B90B0020C5
:10317000140B0020400A0020000024400000E03F23
:10318000F47A0008550B0020540B00207C0A002024
:10319000EC7A00085E0B0020007B000808B50248AE
:1031A00000F0A2F808BD00BF280A002008B50249B7
:1031B000024800F077FA08BD540B0020140B0020E1
:1031C000704700002DE9F04F85B08246DDF8389059
:1031D00003C8FCF7C1FF04460D46DAF83030A9EB0E
:1031E000030B02460B46DAE90201FDF76DF9FDF724
:1031F00005FC019022462B46DAE90401FDF764F94B
:10320000DAE90823FCF7AAFF06460F46CAE9086771
:10321000DAE90A2320462946FCF79EFFDAE906236D
:10322000FDF752F9CDE902015846FDF7D3F8024601
:103230000B46DDE90201FDF771FAFDF7DFFB804681
:103240000022264B30463946FDF7C4FB002833D018
:103250000022224BCAE908230022214B204629469E
:10326000FDF7AEFB48B19AF8343033B900221D4B5C
:10327000CAE9082301238AF83430DAE9086701989B
:10328000FDF7B8F832463B46FCF768FF06460F46A6
:103290004046FDF7AFF832463B46FCF75FFFFDF7CF
:1032A000ADFB002815DBB42815DCCAF83090CAE95C
:1032B0000A4505B0BDE8F08F0022002330463946AC
:1032C000FDF77EFB0028C7D000220023CAE90823AF
:1032D000C2E70020E9E7B420E7E700BF00806640CE
:1032E000000024400080564010B5037C9BB104468A
:1032F0001D4B1B787BB902681B4B5A6042689A6071
:103300008268DA60C2681A61437C63B9052000F004
:10331000BDF900232374144B1B78032B0DD8DFE871
:1033200003F0060D141B032000F0B0F9F1E70E4C7A
:10333000606800F0A7F90123237010BD0A4CA06853
:1033400000F0A0F902232370F7E7074CE06800F0D3
:1033500099F903232370F0E7034C206900F092F9F8
:1033600000232370E9E700BFD409002070B50546AB
:103370000E4614469F2A00D9A024A3199F2B1ED9BC
:10338000C4F1A00600236B742B7CDBB944F62062E9
:1033900002FB06F39B080D49A1FB03039B082B606E
:1033A00002FB04F4A408A1FB041403EB94046C6076
:1033B0001344AB601444EC6001232B7470BD0123F3
:1033C0006B74E1E7FFF7FCFEE0E700BF176CC11686
:1033D00082B00E4B9A6942F001029A619A6902F03A
:1033E00001020092009ADA6942F08052DA61DB69E8
:1033F00003F080530193019B054A536823F0E06377
:1034000043F00073536002B0704700BF00100240E9
:103410000000014010B586B000230293039304938B
:1034200005930268164B9A4201D006B010BD03F511
:1034300060439A6942F480529A619A6902F4805218
:103440000092009A9A6942F004029A619B6903F023
:1034500004030193019BA0230293022303930323FC
:103460000593084C02A92046FDF73CFF4023029338
:1034700000230393049302A92046FDF733FFD4E70A
:10348000003001400008014000B587B000230293DE
:103490000393049305930368B3F1804F02D007B000
:1034A0005DF804FB03F50433DA6942F00102DA61E6
:1034B000DA6902F001020092009A9A6942F004026D
:1034C0009A619B6903F004030193019B06A90223FF
:1034D00041F8103D0548FDF705FF002211461C206C
:1034E000FDF75EFE1C20FDF78FFED8E700080140C7
:1034F00000B587B0002302930393049305930368F8
:10350000B3F1804F02D007B05DF804FB03F504333C
:103510009A6942F004029A619B6903F004030193E3
:10352000019B01230293022303930323059302A922
:103530000148FDF7D7FEE6E70008014030B587B047
:103540000023029303930493059302681B4B9A4252
:1035500001D007B030BD03F5E633DA6942F400323A
:10356000DA61DA6902F400320092009A9A6942F054
:1035700004029A619B6903F004030193019B0423F5
:10358000029302230393032305930D4D02A92846BA
:10359000FDF7A8FE082302930024039404940DEB86
:1035A00003012846FDF79EFE224621462620FDF710
:1035B000F7FD2620FDF728FECBE700BF00440040C2
:1035C000000801407047FEE7FEE7FEE7FEE77047B0
:1035D0007047704708B5FDF7ABFD08BD08B5024858
:1035E000FEF7BCFE08BD00BFD40A002008B50248A3
:1035F000FFF728FB08BD00BF140B002008B50346E9
:103600000B4A126842B10A4A106803446A46934260
:1036100006D8074A136008BD054A06491160F2E75B
:1036200000F0A2F80C2303604FF0FF30F3E700BF77
:10363000E8090020E80B00200F4B1A6842F0010255
:103640001A6059680D4A0A405A601A6822F084725A
:1036500022F480321A601A6822F480221A605A68B2
:1036600022F4FE025A604FF41F029A60044B4FF09E
:1036700000629A60704700BF001002400000FFF82F
:1036800000ED00E04FF08043586370474FF08043F7
:103690009A6922F070029A619A6942EA0010986170
:1036A0007047000038B505460C46087808B394F812
:1036B00065300D2B1FD0002284F86720421C227039
:1036C000204443704FF47A73012204F165012846C7
:1036D000FFF7BCF9012204F165012846FFF726FA3D
:1036E00038BDE218002151700133DBB2632BF8D9E9
:1036F000DDE70346FAE700232370012384F86730EF
:103700004FF47A73022202492846FFF79FF9E1E756
:10371000387B0008002103E00B4B5B584350043119
:103720000A480B4B42189A42F6D30A4A02E0002399
:1037300042F8043B084B9A42F9D3FFF77DFF00F0B3
:1037400019F8FFF73DFC7047DC7D00080000002001
:10375000B8090020B8090020E80B0020FEE70000AF
:103760000A22002100F072B9014B1868704700BFAF
:103770000C00002070B50D4E0D4D761BB61006D016
:103780000024013455F8043B9847A642F9D1094E6C
:10379000094D04F087F9761BB61006D000240134D9
:1037A00055F8043B9847A642F9D170BDD07D00087A
:1037B000D07D0008D87D0008D07D0008F0B48607D1
:1037C00043D0541E002A3ED0CAB2034602E014F190
:1037D000FF3438D303F8012B9D07F8D1032C2BD9E4
:1037E000CDB245EA05250F2C45EA054516D9A4F1C9
:1037F00010073F0903F1200606EB071603F110023C
:1038000042E9045542E902551032B242F8D104F0BF
:103810000F040137032C03EB07130DD91E46224674
:10382000043A032A46F8045BFAD8221F22F0030266
:103830000432134404F003042CB1C9B21C4403F84D
:10384000011B9C42FBD1F0BC704714460346C5E700
:103850000EB4034630B56FF000449CB01FA951F878
:10386000042B0A480A4D0293069301910B46006807
:1038700002A90794CDE9044500F0FEF80022029B5E
:103880001A701CB0BDE8304003B070470C00002037
:103890000802FFFF002A3FD040EA010313F00303B0
:1038A000F0B425D1032A23D904680D68AC421FD196
:1038B000043A33D0A4F1013525EA040414F0803F22
:1038C0002FD1071D0D1D0DE057F8043B0E68A3F125
:1038D0000134B34224EA03040AD1043A1ED014F09E
:1038E000803F1BD1032A2946384605F10405EBD851
:1038F00003780C78013A9C420BD17AB114B90DE0EF
:1039000062B173B110F8013F11F8014F013AA342BF
:10391000F6D0181BF0BC7047104670470020F0BC72
:1039200070471846F6E700BF2DE9F84F0E4680466F
:10393000174699460D4600E025462C460A9814F88D
:1039400001BB02F0B3FE5844417811F00801F3D1F5
:10395000BBF12D0F57D0BBF12B0F04BF95F801B071
:10396000AC1CB9F1000F04D0B9F1100F50D0CC4607
:1039700005E0BBF1300F55D04FF00A09CC460029C5
:103980000CBF6FF0004E4FF0004E0025BEFBFCF365
:1039900028460CFB13EA05E029D001250CFB00208A
:1039A00014F801BBABF13002092A05D9ABF1410291
:1039B000192A0BD8ABF1370291450FDDB5F1FF3F66
:1039C000EED08342E8D24FF0FF35E9E7ABF1610278
:1039D000192A03D8ABF157029145EFDC6B1C0BD0D1
:1039E00001B140420FB14DBB3E60BDE8F88F92453A
:1039F000D3DA4FF0FF35D3E72223C8F80030FFB108
:103A00007046661EF0E7AC1C95F801B00121A8E7EE
:103A1000BBF1300FABD1237803F0DF03582B06D076
:103A2000CC46ACE7237803F0DF03582B0AD14FF0E4
:103A3000100C94F801B0E1460234A0E78646DFE7B7
:103A40007046D2E74FF00809CC4698E7084B70B5AE
:103A50001D68084E6C6B82B0002C08BF34461346BC
:103A600000940A4601462846FFF75EFF02B070BD8B
:103A70000C0000203C0400202DE9F04FD9B00C468A
:103A80000A9193460D93079002F014FE03681846BE
:103A90001D9303F06FFCA3891C901F0603D52369B7
:103AA000002B00F0568700235E461893149317935B
:103AB000CDE92D331B93CDE91F3321931E93099339
:103AC000CDE919332FAB2C9399463378002B00F0B6
:103AD0009081252B344602D11AE0252B03D014F80F
:103AE000013F002BF9D1A51B75B1DDE92D32013362
:103AF0002A44072BC9E90065CDE92D327CDC09F1A8
:103B00000809099B2B4409932378002B00F071814D
:103B100000234FF0FF3A98462B2567780B938DF8DA
:103B2000933004F1010B0BF1010BA7F120035A2B89
:103B300000F2D083DFE813F08C03CE03CE038703BB
:103B4000CE03CE03CE036803CE03CE035B0356033E
:103B5000CE0351033703CE038601B500B500B5008F
:103B6000B500B500B500B500B500B500CE03CE0375
:103B7000CE03CE03CE03CE03CE03B002CE038B0121
:103B80002103B002B002B002CE03CE03CE03CE03B7
:103B90001C03CE03CE038400CE03CE03CE03F50276
:103BA000CE03AD03CE03CE039703CE03CE03CE03E5
:103BB000CE03CE03CE03CE03CE03B002CE038B01E1
:103BC000C400B002B002B002C103C4005B00CE0367
:103BD0006901CE034201860076015B00CE03F50247
:103BE0005D001301CE03CE032201CE035D0048F039
:103BF00020089BF8007096E72CAA0A99079803F012
:103C000019FC80B90DF1BC097BE72CAA5946504636
:103C100003F010FC002801F0C380109B1BB1109929
:103C2000079802F04FFC0A9B9B8913F0400F099BF9
:103C300018BF4FF0FF330993099859B0BDE8F08FD2
:103C400048F0100818F0200F00F06E850D9C073426
:103C500024F0070303F108020D92D3E90045002286
:103C600028F480630021BAF1FF3F8DF8931058A922
:103C7000089100F06F8454EA050123F0800845D1D3
:103C8000BAF1000F40F09287002A40F01B8513F034
:103C900001030C9300F07A85302358AE06F8013DFD
:103CA00049E30022A7F130031BF8017B02EB8202FB
:103CB00003EB4202A7F13003092BF5D90B9234E74D
:103CC00043469E0640F15E820D9C073424F00704B3
:103CD000D4E9000104F108020D4604460D920028C3
:103CE00071F1000205DA2D22644265EB45058DF87D
:103CF000932058AABAF1FF3F089200F0F48654EAE4
:103D000005014FF0010223F08008B9D0012A00F02C
:103D10002584022A00F0FC8258A900E03146E2081E
:103D200042EA4572E80804F00703054614463033BA
:103D300054EA050201F8013C01F1FF36EED118F01A
:103D4000010F00F0F582302B00F0F2823023089A48
:103D50000239521A06F8013C0C920E46EBE2434639
:103D60009E0640F19B820D9C073424F0070202F16D
:103D70000801D2E900450D91012273E7A44B18F028
:103D8000200F1B9300F075820D9C073424F007036D
:103D900003F108020D92D3E9004518F0010F09D094
:103DA00054EA050306D030238DF8957048F00208D8
:103DB0008DF89430022228F4806353E70D9A18F0AE
:103DC000200F52F8043B0D9240F0078518F0100FB9
:103DD00040F0408718F0400F40F0F18718F4007F62
:103DE00000F038875E46099A1A703378002B7FF40A
:103DF00070AE2E9B002B3FF416AF0A9C07982CAA9E
:103E0000214603F017FBA3890FE79BF800706C2F86
:103E100003BF9BF8017048F020080BF1010B48F03C
:103E2000100880E647F630020D99ADF894200A1D7F
:103E30000D92774A0C681B9248F00203002502227B
:103E400078270FE748F080089BF800706BE60023A6
:103E500001200D9C1A4621688DF8933010939A46E4
:103E60001393CDE91533231D08900C908DF8FC10A9
:103E70000D933FAE18F002030E9302D0089B02335D
:103E8000089318F084032E9C11933FD10B9B089943
:103E90005D1A002D3ADD102D2D9A29DD4946204668
:103EA000B14610232297079C0A9E04E0103D102D76
:103EB00001F1080118DD0132564F1030072ACDE913
:103EC0002D20C1E90073F1DD2CAA31462046129362
:103ED00003F0B0FA00287FF4A0AEDDE92D20103DFC
:103EE000102D2FA9129BE6DC4E4604468946229FE0
:103EF0000132484B2C44072ACDE92D24C9E900356D
:103F000000F367859DF8932009F1080972B101203B
:103F10002D9A044402440DF19301072ACDE92D2482
:103F2000C9E9001000F3268309F108090E9B6BB163
:103F300002212D9B0C44013325AA072BCDE92D34FA
:103F4000C9E9002100F3228309F10809119B802BA4
:103F500000F059820C9BAAEB0305002D36DD102DD5
:103F60002D9A40F35B862C4B49462046B1464FF0D4
:103F7000100A0A9E1C4604E0103D102D01F10801B4
:103F800015DD01321030072ACDE92D20C1E9004AA4
:103F9000F2DD2CAA3146079803F04CFA00287FF492
:103FA0003CAEDDE92D20103D102D2FA9E9DC4E4659
:103FB00023468946044601322C44072ACDE92D24A4
:103FC000C9E9003500F3268309F1080918F4807F58
:103FD00040F0BE812D9B0C9A01331444072B2E9484
:103FE000C9E900622D9300F3098309F1080918F06B
:103FF000040F3AD00B9B089A9D1A002D35DD102D29
:104000002D9B28DD1026079FDDF828800BE000BFE0
:10401000507B0008847B0008947B0008103D102D25
:1040200009F1080917DD0133B44A1034072BCDE933
:104030002D34C9E90026F1DD2CAA4146384603F0AB
:10404000F9F900287FF4E9ADDDE92D34103D102D9C
:104050000DF1BC09E7DC0133A84A2C44072BCDE95C
:104060002D34C9E9002500F38783099B0B9A089931
:104070008A42ACBF9B185B180993002C40F0FF816B
:1040800000232D93109B1BB11099079802F01AFA88
:104090000DF1BC095E46A8E60D9C073424F0070C20
:1040A000DCE90023179323F00043189215461046CD
:1040B000089319460CF108044FF0FF32904B0D9411
:1040C000FCF768FE002840F09083284608994FF0DE
:1040D000FF328B4BFCF774FC002840F08683DDE94F
:1040E00018021A9B1799FCF761FC002840F06C87B6
:1040F0009DF8932003200021824E834B089010915D
:104100008A46472FD8BF1E46CDE9151128F08008F2
:104110000C901391002A3FF4ADAE089B0133089335
:10412000A8E600250D9B8DF893501E681C1D002EDF
:1041300000F03F84BAF1FF3F00F02B86524629463B
:10414000304602F071FD1090002800F07087AA46FA
:10415000109B9B1BCDE90C3423EAE3730893CDF845
:1041600040A0CDF84CA0CDE915AA9DF89320D1E749
:1041700048F008089BF80070D5E448F010039E064C
:104180003FF5A2AD0D99DD0601F1040200F10C83AB
:104190005C060D9940F10583B1F900400D92E517D9
:1041A000204629469BE59BF800700BF101022A2F5F
:1041B00001F02781A7F13003092B93464FF0000A45
:1041C0003FF6B3AC1BF8017B0AEB8A0A03EB4A0A01
:1041D000A7F13003092BF5D9A7E49BF8007048F04C
:1041E0000408A0E48DF893509BF800709BE40D9BAD
:1041F0009BF800701A680433002A0B920D93BFF6E7
:1042000092AC53420B93EAE7079F384602F052FA0A
:10421000436818461E9303F0ADF8219004463846D3
:1042200002F048FA83682093002C3FF4E2AC9BF83C
:104230000070002B3FF477AC1B78002B3FF473AC7D
:1042400048F480686FE448F001089BF800706AE465
:104250009DF893309BF80070002B7FF464AC202312
:104260008DF893305FE4294B18F0200F1B937FF4F7
:104270008BAD0D9A18F0100F02F1040340F08C8200
:1042800018F0400F0D9A00F08382148800250D93DA
:1042900083E548F010039E063FF565AD0D9ADD06F7
:1042A00002F1040100F193825C060D9A40F18C82C8
:1042B0001488002501220D91D4E49BF80070682F2A
:1042C00003BF9BF8017048F400780BF1010B48F034
:1042D000400828E4002F3FF48CAD002301211A464A
:1042E00008918DF8FC708DF8933010939A461393D3
:1042F000CDE915330C913FAEBCE500BF847B0008CF
:10430000FFFFEF7F447B0008407B0008647B0008D0
:104310001B9858AE230943EA0573290904F00F02DC
:104320000D461C46835C06F8013D54EA0503F1D1B5
:10433000089B9B1B0C93002310931393CDE915331B
:104340000C9B9DF893205345B8BF53460893E1E674
:10435000652F40F39E80DDE918021A9B1799FCF740
:104360001BFB002800F0668101212D9BAF4A0B4406
:104370000C44072B2E942D93C9E9002100F34284AD
:1043800009F10809269B149A2E9C934280F2EF8132
:104390002D9B1C9A01331D991444072BC9E9001267
:1043A000CDE92D3400F3F98209F10809149B5D1E53
:1043B000002D7FF71CAE102D2D9A40F3C6879C4B25
:1043C00010261946079F2346DDF828A00C4605E075
:1043D00009F10809103D102D40F307840132103314
:1043E000072ACDE92D23C9E90046F1DD2CAA514663
:1043F000384603F01FF800287FF40FACDDE92D23C9
:104400000DF1BC09E6E70B9B089A9D1A002D7FF77A
:10441000A1AD102D2D9A864B25DD49462046B1468B
:104420001C460A9E04E0103D102D01F1080116DD26
:10443000102301321030072ACDE92D200C604B608B
:10444000F1DD2CAA3146079802F0F4FF00287FF432
:10445000E4ABDDE92D20103D102D2FA9E8DC4E4600
:1044600023468946044601322C44072ACDE92D24EF
:10447000C9E9003500F3AC8309F108096AE52CAA03
:104480000A99079802F0D6FF00283FF4F9ADFFF72C
:10449000C4BB621C0C92149A2D9B012A03F10105E6
:1044A00009F1080740F34F8101230C9A072DC9F841
:1044B0000060CDE92D52C9F8043000F35D831C9BE8
:1044C0000C9901351D9A1944072D0C91CDE92D51F8
:1044D000C7E9002300F35D8308376C1C11940E9428
:1044E000149CDDE918021A9B179904F1FF3A07F1B1
:1044F0000809FCF751FA002840F0E8800C9B0E9C5C
:1045000053440136072C0C933E602E93C7F804A049
:104510002D9400F3318207F110034F469946AA1CEF
:104520000E921F9A0C997A6011440E9A28AB072AB2
:104530000C462E912D923B607FF759AD2CAA0A991B
:10454000079802F077FF00287FF467AB0DF1BC09F4
:104550002E9C4CE5012A98467FF4DBAB002D08BF6A
:104560000A2C80F0C682012358AE303406F8014D83
:104570000C93E0E62CAA0A99079802F05BFF00284A
:104580007FF44BAB0DF1BC092E9CCFE42CAA0A9909
:10459000079802F04FFF00287FF43FAB0DF1BC09F4
:1045A0002E9CD3E42CAA0A99079802F043FF002816
:1045B0007FF433AB269B2E9C0DF1BC091BB9149ADA
:1045C000002A00F013842D9A1C9901321D980C4486
:1045D000072A2E94C9E900012D9200F3358509F1CF
:1045E0000809002BC0F2D385149B01321C44072A12
:1045F000CDE92D24C9E900637FF7F7AC2CAA0A990D
:10460000079802F017FF00287FF407AB2E9C0DF1EE
:10461000BC09ECE42CAA0A99079802F00BFF0028C9
:104620007FF4FBAA0DF1BC092E9CCFE4807B00082F
:10463000947B0008269B002B40F37C81DDE914234A
:104640009342A8BF1346002B1D460BDD2D9B2C4427
:104650000133072B2E94C9E900652D9300F3BA842A
:1046600009F10809159B002DA8BF5B1B002B1D46F7
:1046700040F3D781102B2D9A40F39D86BC4B2146E9
:10468000184610274B46DDF81CA0B1460A9C06468A
:1046900004E00833103D102D40F3AA81013210319F
:1046A000072ACDE92D21C3E90067F2DD2CAA2146B6
:1046B000504602F0BFFE00287FF4AFAADDE92D21AD
:1046C0002FABE7E7CDF830A058AE34E6BAF1000FD3
:1046D0007FF727AFBAF1100F40F34C86A44B10269A
:1046E00019460C9A3B46DDF81C900A9C119D0F461A
:1046F00007E00833AAF1100ABAF1100F40F39182D3
:1047000001351032072DCDE92D52C3E90076F0DDD9
:104710002CAA2146484602F08DFE00287FF47DAA8F
:10472000DDE92D522FABE5E70D9A18F0100F02F1DD
:10473000040344D118F0400F0D9A3CD01488002592
:104740000D93FFF78CBA18F0010F7FF4ADAE012284
:104750000C99072DC9F80060CDE92D51C9F8042046
:1047600000F3538402330E9309F11009D9E618F0CF
:10477000010F7FF40DAE3AE42CAA0A99079802F0D3
:1047800059FE00287FF449AA2E9C6EE458AED2E56B
:1047900018F4007F40F01883146800250D93FFF78C
:1047A000FCBA980500F11A830C680D92E5172046B3
:1047B0002946FFF794BA18F4007F40F00A83146882
:1047C00000250D93FFF74BBA980500F1F2821468AB
:1047D000002501220D91FFF745BA099A5E46104661
:1047E000D117C3E90001FFF700BB189C2246204601
:1047F000179C23462146FCF7CDFA002840F0A785F8
:10480000612F00F0FD83412F00F0F68227F0200396
:1048100048F48072BAF1FF3F08931292179D00F09E
:104820002C85472B00F02385002DC0F2E083189BD8
:10483000CDE910000C93662F00F0E384462F00F0C2
:104840006C850220089B2AA9452B06BF0AF10103AB
:104850000E93CDF838A00E9C0491CDE9000426A952
:1048600027A8CDE902100C9A2B46079800F0A8FE65
:10487000672F064640F0A28518F0010F40F0F38440
:104880002A9B40469B1BDDF848801493269B15937A
:10489000089B472B00F06483089B462B00F00C8498
:1048A0000899159BFAB2412908BF0F3203F1FF3373
:1048B00006BFD2B201210021002B8DF8A020B4BF89
:1048C0002D222B222693B8BF159B8DF8A120B8BFAF
:1048D000C3F10103092B00F3DA84002940F0848539
:1048E00030228DF8A2200DF1A30230331370531C37
:1048F00028AA9B1A149A1F93012A13440C9340F37D
:1049000046850C9B1C9A13440C9300231393CDE90A
:1049100015330C9B20F4806023EAE37340F4807825
:104920000893119B002B40F048839A469DF89320F2
:10493000FFF7F0BB01202D9A0E4902440444072AD8
:10494000CDE92D24C9E900103FF72CAE09F1080983
:1049500034E64021079801F0BFFE0A9B18601861F9
:10496000002800F06F8540230A9A5361FFF79BB837
:10497000947B0008807B00082CAA0A99079802F013
:1049800059FD00287FF449A9DDE92D3201330C924D
:104990000E930DF1C4092FAFC3E52CAA0A9907980D
:1049A00002F048FD00287FF438A90DF1BC092E9CC7
:1049B000FCE45346062B28BF0623B2461396CDE9E6
:1049C0001566109632460893CDE90C34A44EFFF7D5
:1049D000A1BB2CAA0A99079802F02CFD00287FF4AD
:1049E0001CA90DF1BC099DF893202E9CFFF78EBAEF
:1049F0000C4631464E4699460B4601322C44072A56
:104A0000CDE92D24C9E9003540F3D0812CAA0A99BB
:104A1000079802F00FFD00287FF4FFA82E9C0DF1EF
:104A2000BC09159B18F4806F33449A4640F01C81F2
:104A3000269B149A934247DB18F0010F44D1149A35
:104A4000B518A5EB0A05D31A9D42A8BF1D46002D37
:104A50000BDD2D9A2C440132072A2E94C9E900A5BA
:104A60002D9200F3658309F10809002DB4BF1D469E
:104A70005D1B002D7FF7BBAA102D2D9A40F3658496
:104A8000784B10261946079F2346DDF828A00C46D0
:104A900005E009F10809103D102D40F3A680013210
:104AA0001033072ACDE92D23C9E90046F1DD2CAAF0
:104AB0005146384602F0BEFC00287FF4AEA8DDE97E
:104AC0002D230DF1BC09E6E72D9A1C9901321D98A2
:104AD0000C44072A2E94C9E900012D9200F3DF82CD
:104AE00009F10809ABE7002D08BF0A2C9846FFF42E
:104AF0003AAD002208F48063CDF830901097CDF8DD
:104B0000388058AE9146DDF880801F460AE0204686
:104B1000294600230A22FCF753F904460D4654EABD
:104B2000050347D00A22002320462946FCF748F90E
:104B3000303206F8012C09F10109013E002FE6D0C0
:104B400098F800309945E2D1B9F1FF0FDFD0002D80
:104B500008BF0A2CDBD3219B1E99F61A1A46304651
:104B600002F036FC98F80130002B00F07A8308F14F
:104B700001084FF00009CAE72CAA0A99079802F029
:104B800059FC00287FF449A82E9B2FAF0C932D9D34
:104B900095E42CAA0A99079802F04CFC00287FF4AF
:104BA0003CA82E9B2FAF0C932D9D96E4012A7FF4F9
:104BB000B0A8D8E4089BCDF850909B1BDDF830904E
:104BC000CDF88080109FDDF838800C93FFF7B3BBE1
:104BD0002CAA0A99079802F02DFC00287FF41DA842
:104BE0000DF1BC092E9CFFF7B5B921461C460B46BA
:104BF00001322C44072ACDE92D24C9E900357FF77D
:104C0000F4A9FBE42CAA0A99079802F013FC0028E7
:104C10007FF403A80DF1BC09FFF7B4BB114BFFF7FC
:104C2000CAB90C923A461F4613466A1C0E9207F107
:104C300008020C99C7E9003A0E9B5144072B0C91CE
:104C40002E912D933FF798AE01330E9302F1080990
:104C5000174666E4099A5E461A60FFF7C6B800BFB9
:104C6000787B0008947B0008149B4A46F3180C9349
:104C7000169BCDF838B0CDF844801296BD4F5646FD
:104C8000DDF88490DDF880802146DDF828B0DDF87D
:104C90001CA0002B5DD0139B002B5ED1169B08F14E
:104CA000FF38013B16932D9B1E9801334944072B77
:104CB0002E91C2E900092D9353DC08320C9898F824
:104CC0000030851B9D42A8BF1D46002D0BDD2D9B8E
:104CD00029440133072B2E91C2E900652D934BDC4B
:104CE00098F800300832002DB4BF1D465D1B002D22
:104CF0002BDD102D2D981CDD102404E0103D102D0F
:104D000002F1080215DD013010310728CDE92D012F
:104D1000C2E90074F2DD2CAA5946504602F08AFB23
:104D200000287EF47AAFDDE92D01103D102D2FAA69
:104D3000E9DC013029440728CDE92D01C2E90075DD
:104D40003EF763AF98F8003008321E44169B002BE4
:104D5000A1D1139B002B00F0F380139B013B139315
:104D6000A1E72CAA5946504602F064FB00287EF4C5
:104D700054AF2FAA2E99A1E72CAA5946504602F00B
:104D800059FB00287EF449AF2FAA98F800302E99DD
:104D9000A9E7304602F0EEFAAA460346FFF7DAB971
:104DA00098F800302FAA2E991E44CFE709F1080980
:104DB00037E61478002501220D91FEF753BF099ABA
:104DC0005E461A80FFF711B8147800250D93FEF7A0
:104DD000E4BF147800250D93FEF741BF91F9004020
:104DE0000D92E51720462946FEF779BF18F0010F0E
:104DF0003FF4FDA8FFF7E7BB302258238DF894203D
:104E0000BAF1630F8DF8953048F0020400F3E681A3
:104E100048F48173129327F0200308930023A046DF
:104E2000179D10933FAE002DC0F2E280189B179D96
:104E30000C9300231193612F00F09381412F7FF495
:104E4000FAAC26AA0C98294602F050FA00224FF03C
:104E50007F53FBF739FBDDE91923CDE90E01FBF7A1
:104E60009BFD002840F04482434B0C93CDE9157A1A
:104E70000AF1FF35CDE9139B2396B146DDE90E67B4
:104E8000CDF88880DDF830A005E0DDE91923FBF7D7
:104E900083FDF8B9A1460022384B30463946FBF76E
:104EA00013FB0F460646FBF7A9FD8046FBF7A2FA67
:104EB00002460B4630463946FBF74EF94C461AF887
:104EC00008C06A1CAB4606460F4604F801CB05F144
:104ED000FF35DAD1304639460022294B159F454629
:104EE000CDF85490DDF858A0DDF84C90DDF88880BE
:104EF000CDF84CB0239EDDF850B0CDE90E01FBF7A4
:104F000073FD002840F0AF80DDE90E0100221C4B4C
:104F1000FBF742FD18B12B46DB0700F1A480139B81
:104F2000002B07DB3022139B0133234404F8012BB1
:104F3000A342FBD1A31B40461493DDF84880A5E4AF
:104F4000B246149B129ECDF88080F3189A45914684
:104F5000DDF838B0DDF844800C4628BF9A4667E596
:104F6000159BDA1C01DB53450CDD023F27F02003C3
:104F7000089395E4947B0008647B000800003040AF
:104F80000000E03F159B14998B42C0F2E080C207FD
:104F900040F1AB811C9A13440C93470540F1C28049
:104FA000159B002B00F34C8267270C9B23EAE373CD
:104FB0000893002313931693B3E42D224FF0000AB5
:104FC0008DF89320FFF7A9B82D231A468DF893305A
:104FD000FFF790B82CAA0A99079802F02BFA00283C
:104FE0007EF41BAE0DF1BC092E9CFFF73BBB10906D
:104FF000189B0C93179B03F100452D2311931AE77F
:1050000030238DF894307823FAE62CAA0A99079871
:1050100002F010FA00287EF400AEDDE92D320133F3
:105020002FAF0C920E930DF1C409FFF77ABACDF8A9
:1050300020A0CDF830A00D9482461390CDE9150044
:105040009DF89320FFF766B82CAA0A99079802F0FA
:10505000F1F900287EF4E1ADDDE92D240DF1BC0964
:10506000269BFFF7BEBA159B2A930C9B14F8012CC4
:10507000D97B2346914209D1302003F8010C2A9BA9
:105080005A1E2A9213F8012C9142F6D0392A0BBFEE
:105090000C9A0132927AD2B203F8012C4AE72CAA78
:1050A0000A99079802F0C6F900287EF4B6AD0DF112
:1050B000BC09269B2E9CC2E4159B002B40F36C81FF
:1050C000159BBAF1000F40F0DC80C40700F1D980D5
:1050D00066270C93430526D5002320981393169337
:1050E000159A0378FF2B0BD0934209DA4178D21A34
:1050F000A1B1169B0130013316930B46FF2BF3D160
:105100001592169B139A0C991344219A209002FB36
:1051100003130C9323EAE373089302E41399013118
:105120001391DFE767270C9B23EAE373089340E7BB
:105130002CAA0A99079802F07DF900287EF46DAD3B
:10514000269B149A0DF1BC092E9CD31A8DE4149B56
:105150001C9A13440C93159B002B40F30E81672778
:10516000B8E726AA0C98294602F0C0F800224FF0B2
:105170007F53FBF7A9F9DDE91923CDE90E01FBF710
:105180000BFC08B101232693B64B0C936EE65D42EF
:10519000103380F24F81B44B10271946DDF81CA064
:1051A00023460C4605E009F10809103D102D40F397
:1051B000A48001321033072ACDE92D23C9E9004725
:1051C000F1DD2CAA0A99504602F034F900287EF449
:1051D00024ADDDE92D230DF1BC09E6E70AF101015B
:1051E000079801F079FA0646002800F0338148F468
:1051F0008173129327F020030893A046179D109007
:1052000011E603202AA9CDE9000A049127A826A9BE
:10521000CDE902100C9A2B46079800F0D1F906460A
:10522000CDF838A000EB0A043378302B00F0CE80A4
:10523000269B1C44199A0C981A9B2946FBF7ACFB39
:1052400010B12346FFF71DBB2A9BA342BFF419AB45
:1052500030215A1C2A9219702A9B9C42F9D8FFF7D8
:1052600010BB994653E40E9B33441C46E2E7BAF167
:10527000000F00F09B801090D5E510904FF0060ACB
:10528000D1E51C9A6627134453440C9322E70DF191
:10529000AF0C6446754D00E01446A5FB0321C90818
:1052A00001EB8102A3EB42023032092904F8012C00
:1052B0000B4604F1FF32EFDC3033023CDBB2A44595
:1052C00002F8013C40F2B8800DF1A204114601E061
:1052D00011F8013B8C4504F8013BF9D12CAB9B1A2A
:1052E0000DF1A2021344FFF703BB159B0C9354E688
:1052F000012326935E4B0C93B8E521461C460B46D2
:1053000001322C44072ACDE92D24C9E9003500F3E8
:10531000838009F10809FFF767B903202AA9CDE9BD
:10532000000A049127A826A9CDE902100C9A2B4661
:10533000079800F045F90646CDF838A00E9B462F99
:1053400006EB03043FF470AF74E7474B50E4179B40
:105350000320002BB8BF2D234FF00001BABF1A461F
:105360008DF893309DF8932008901091414E424B58
:10537000FEF7C6BE4A463C4B5BE40C9AC3F1010300
:105380001A4422EAE2730C920893672711E6C507D4
:105390007FF5BBAAFFF7B5BABAF1000F28D1C10754
:1053A00026D40123662708930C9302E6CDF840A08B
:1053B0004FF0010A37E52C4BFFF71FBB472F7FF457
:1053C00052AF18F0010F3FF45BAAB7E7199A0C9897
:1053D0001A9B2946FBF7E0FA00287FF429AF0E9BC1
:1053E000C3F10103269324E70DF1A202FFF77DBA72
:1053F0001C9B6627013353440C9323EAE373089301
:10540000D7E50D999BF801700B68934643EAE37A60
:105410000B1D0D93FEF787BB2CAA0A99079802F083
:1054200009F800287EF4F9ABDDE92D240DF1BC0963
:10543000FFF7DAB80C4B63E70DF1A203FFF758BA98
:10544000672749E64FF0FF320C230992079A136051
:10545000FEF7F2BB0A9A938943F040039381FEF76B
:10546000E4BB00BF507B0008947B0008CDCCCCCCC3
:10547000647B00084C7B0008487B0008024B13B19A
:10548000024800F005B8704700000000F163000812
:10549000002301461A46184602F052B82DE9F04F93
:1054A00003690E6983B0B342C0F28680013E01F108
:1054B000140800F1140958F8263059F82670013301
:1054C000B7FBF3F7B300009308EB030A4B440193D7
:1054D000002F3BD00023C6461C46CC465EF8042B6A
:1054E000DCF800501FFA82FB07FB0B33120C4FEA6B
:1054F000134B07FB02BB9AB2A21AABB21FFA8BF492
:105500001A44C4EB154404EB224492B242EA04422A
:10551000F2454CF8042B4FEA24444FEA1B43DDD2FA
:10552000009B59F803308BB9019A131F99450CD28F
:1055300052F8043C4BB9A2F1080302E01A68043B9C
:105540001AB9994506F1FF36F8D30661044601F011
:10555000D9FD00282CDB4D460023013758F8041BE9
:1055600028688AB29A1A0B0C81B20A44C3EB104322
:1055700003EB224392B242EA0342C24545F8042BB0
:105580004FEA2343EAD259F8262009EB86037AB979
:105590001A1F91450BD253F8042C42B9083B02E084
:1055A0001A68043B1AB9994506F1FF36F8D326610B
:1055B000384603B0BDE8F08F002003B0BDE8F08F9F
:1055C0002DE9F04F1F461646036C99B00446CDE90D
:1055D00002674BB10122456C1946AA40C3E901524A
:1055E00001F09AFB002323643E1EB4BF0123002375
:1055F000259AB8BF26F000461360754BB8BF0396D6
:10560000B34300F0A380DDE9028900220023404675
:105610004946FBF7C1F9074678B10123249A136084
:10562000269B002B00F0BF806A4B269A03F1FF39BE
:105630001360484619B0BDE8F08F16AA17ABCDE944
:105640000032204642464B4601F0F8FD350D8346B8
:1056500040F09C80DDE91685454405F23243202B5D
:1056600040F33184C3F140039E40029B05F2124097
:1056700023FA00F03043FAF7ADFE0122013D0A9211
:10568000A1F1F8710022544BFAF766FD4AA3D3E961
:105690000023FAF719FF4AA3D3E90023FAF75EFDC6
:1056A000064628460F46FAF7A5FE47A3D3E900238E
:1056B000FAF70AFF02460B4630463946FAF74EFD26
:1056C00006460F46FBF79AF9002205900023304664
:1056D0003946FBF76BF9002840F07782059E162EBD
:1056E00000F26182DDE902233C4901EBC601D1E908
:1056F0000001FBF779F9002800F0E183731E0593A0
:1057000000230D93A8EB0505B5F1010A00F15782BE
:1057100000230693059B002BC0F248829A440C9309
:1057200000230B93229B092B60D8052B40F3C983E0
:105730000026043B2293229B023B032B00F2A18410
:10574000DFE813F0E603C803F003FC0442F20F7332
:10575000249A1360029B83B9C6F313066EB9269B85
:10576000DFF87C90002B3FF464AF09F10803484652
:10577000269A136019B0BDE8F08F269BDFF864907D
:10578000002B3FF456AF09F10303F0E7C9F313030D
:1057900043F07F514046A5F2FF350A9741F440118E
:1057A000DDF858806EE7DFF84090484619B0BDE854
:1057B000F08F00BFAFF3008061436F63A787D23FD4
:1057C000B3C8608B288AC63FFB799F501344D33FF0
:1057D0000000F07F817B00080000F83FF07B0008AC
:1057E000A47B0008B07B0008807B00084FF0FF35E9
:1057F00001260023CDE90856229323930021149516
:105800006164204601F062FA0E2D8146206400F2A8
:10581000FE80002E00F0FB80DDE9022316461F46C5
:105820000599CDE90E67002940F3E9839B4B01F010
:105830000F020D1103EBC203D3E90012CDE90212EE
:10584000EA0640F1A084964B3946D3E90823304656
:10585000FAF764FF0327CDE9100105F00F057DB1CC
:10586000DDE902018E4EEB0704D5D6E90023FAF7F5
:105870002BFE01376D1006F10806F4D1CDE90201C7
:10588000DDE90223DDE91001FAF748FFCDE9020165
:105890000D9B43B1DDE902010022824BFBF786F844
:1058A000002840F009853846FAF7A4FDDDE9022317
:1058B000FAF70AFE7C4B0022FAF750FC089B0546DB
:1058C000A1F15076002B00F01E84059B1593089BD8
:1058D0001093DDE90201FBF791F8109A6F4B00F18C
:1058E000300803EBC20353E90212CDE91212FAF7B2
:1058F00081FD0B460246DDE90201CDE90256FAF7C9
:105900002BFC099B5FFA88F806460F4609F1010552
:10591000002B00F06384DDE9122300206349FAF7CD
:10592000FDFEDDE90223FAF717FC89F80080324614
:105930003B46CDE90201FBF757F8002840F00E8501
:1059400032463B4600205749FAF706FC02460B4612
:10595000DDE90201FBF748F8002840F00985109ABC
:10596000012A50D04A44CDF848A0CDF840B0A04616
:10597000DDE902ABCDF8089091460EE032463B4699
:1059800000204849FAF7E8FB52465B46FBF70EF861
:10599000002840F0E6844D452ED05046594600225E
:1059A000434BFAF791FD0022414B82468B4630462D
:1059B0003946FAF789FD0F460646FBF71FF80446FD
:1059C000FAF718FD02460B4630463946FAF7C4FB93
:1059D0003034E4B205F8014B52465B4606460F46AA
:1059E000FAF7E4FF0028C9D0159BDDF840B0DDF8D8
:1059F00008904446059339E24446DDF848A0DDF8B6
:105A000040B0DDF80890DDE90E23CDE90223179BB5
:105A1000002BC0F2A980059A0E2A00F3A5801F4B27
:105A200003EBC203D3E90023CDE90623239B002B1C
:105A3000C0F2C182DDE90267DDE90623304639465E
:105A4000FAF76CFEFAF7DAFF8046FAF7D3FCDDE9E5
:105A50000623FAF739FD02460B4630463946FAF777
:105A60007BFB089E08F13005012E89F800500246A4
:105A70000B4609F101054CD000220D4BFAF724FD2D
:105A80000022002306460F46FAF786FF002840F062
:105A9000ED81CDF808B0DDE906AB18E0F07B000839
:105AA000C87B00080000F03F00001C400000E03F01
:105AB000000024400022C64BFAF706FD0022002316
:105AC00006460F46FAF768FF002840F04183524629
:105AD0005B4630463946FAF721FEFAF78FFF8046DB
